:020000040000fa
:10000000f07f0020ad1600007318000033190000c7
:1000100000000000000000000000000000000000e0
:100020000000000000000000000000008719000030
:100030000000000000000000871900008719000080
:100040008719000087190000751800008719000043
:100050008719000087190000871900008719000020
:100060008719000087190000871900008719000010
:100070008719000087190000c90c000087190000cb
:1000800087190000871900008719000087190000f0
:1000900087190000871900008719000087190000e0
:1000a00087190000871900008719000087190000d0
:0c00b00087190000871900008719000064
:020000040000fa
:1000bc00f8b5c046f8bc08bc9e4670474516000013
:1000cc00f8b5c046f8bc08bc9e4670471d1600002b
:020000040000fa
:1000dc000000000000000000000000000000000014
:1000ec0000000000001000100010001000100010a4
:1000fc00000000100000000000280028002800006c
:10010c00000000000000000000000000002400249b
:10011c00007c00240048007c0048004800000000df
:10012c0000380054005000380014005400540038bb
:10013c00001000000020005400580030002800542b
:10014c000014000800000000001000280028001017
:10015c00003400480048003400000000001000107b
:10016c000010000000000000000000000000000073
:10017c00000800100020002000200020002000209b
:10018c0000100008002000100008000800080008fb
:10019c000008000800100020001000380010002893
:1001ac000000000000000000000000000000000043
:1001bc0000100010007c0010001000000000000077
:1001cc000000000000000000000000000000001013
:1001dc0000100010000000000000000000000038bb
:1001ec000000000000000000000000000000000003
:1001fc0000000000000000100000000000080008d3
:10020c000010001000100010002000200000000062
:10021c0000380044004400540044004400440038ba
:10022c000000000000100030005000100010001002
:10023c0000100010000000000038004400440004ce
:10024c00000800100020007c000000000038004472
:10025c0000040018000400040044003800000000f2
:10026c0000080018002800280048007c000800083e
:10027c0000000000007c00400040007800040004f6
:10028c0000440038000000000038004400400078b2
:10029c00004400440044003800000000007c0004ce
:1002ac0000080010001000200020002000000000ba
:1002bc000038004400440038004400440044003836
:1002cc00000000000038004400440044003c0004de
:1002dc000044003800000000000000000010000086
:1002ec0000000000000000100000000000000000f2
:1002fc0000000010000000000000001000100010b2
:10030c0000000000000c003000400030000c000029
:10031c0000000000000000000000007c0000007cd9
:10032c000000000000000000000000000060001849
:10033c0000040018006000000000000000380044b9
:10034c000004000800100010000000100000000065
:10035c0000380044004c0054005c00400040003861
:10036c000000000000100028002800280028007c55
:10037c000044004400000000007800440044007871
:10038c0000440044004400780000000000380044a1
:10039c0000400040004000400044003800000000d5
:1003ac0000700048004400440044004400480070c1
:1003bc0000000000007c00400040007c0040004039
:1003cc000040007c00000000007c004000400078f1
:1003dc000040004000400040000000000038004495
:1003ec0000400040005c0044004400380000000065
:1003fc00004400440044007c004400440044004499
:10040c000000000000380010001000100010001058
:10041c000010003800000000000400040004000478
:10042c0000040004004400380000000000440048b0
:10043c0000500060005000480048004400000000dc
:10044c000040004000400040004000400040007c64
:10045c00000000000044006c006c00540044004498
:10046c000044004400000000004400640064005498
:10047c000054004c004c00440000000000380044c4
:10048c0000440044004400440044003800000000d4
:10049c0000780044004400440078004000400040d4
:1004ac0000000000003800440044004400440044b4
:1004bc00005400380004000000780044004400445c
:1004cc000078004800480044000000000038004458
:1004dc000040003000080004004400380000000018
:1004ec00007c001000100010001000100010001014
:1004fc000000000000440044004400440044004458
:10050c00004400380000000000440044004400286f
:10051c0000280028001000100000000000440044d7
:10052c00005400540054006c002800280000000007
:10053c000044002800280010001000280028004467
:10054c0000000000004400440028002800100010a7
:10055c000010001000000000007c000400080010d7
:10056c00001000200040007c00000000001800106b
:10057c0000100010001000100010001000100018e7
:10058c0000200020001000100010001000080008cf
:10059c0000000000003000100010001000100010cf
:1005ac00001000100010003000100028002800443b
:1005bc00000000000000000000000000000000002f
:1005cc00000000000000000000000000000000fe21
:1005dc0000200010000000000000000000000000df
:1005ec00000000000000000000380044003c004403
:1005fc00004c003400000000004000400058006433
:10060c00004400440064005800000000000000009a
:10061c000038004400400040004400380000000056
:10062c00000400040034004c00440044004c00342e
:10063c00000000000000000000380044007c004076
:10064c000044003800000000000c0010007c00107a
:10065c00001000100010001000000000000000004e
:10066c000034004c00440044004c0034000400787a
:10067c000040004000580064004400440044004422
:10068c0000000000001000000070001000100010ae
:10069c00001000100000000000100000007000109e
:1006ac000010001000100010001000e0004000408e
:1006bc00004800500060005000480044000000005a
:1006cc00007000100010001000100010001000103e
:1006dc00000000000000000000780054005400549a
:1006ec00005400540000000000000000005800649a
:1006fc0000440044004400440000000000000000de
:10070c00003800440044004400440038000000005d
:10071c0000000000005800640044004400640058cd
:10072c0000400040000000000034004c0044004435
:10073c00004c003400040004000000000058006469
:10074c00004000400040004000000000000000009d
:10075c00003800440030000800440038000000005d
:10076c00002000200078002000200020002000182d
:10077c00000000000000000000440044004400445d
:10078c00004c003400000000000000000044004455
:10079c0000280028002800100000000000000000c5
:1007ac00005400540054006c002800280000000085
:1007bc000000000000440028001000100028004435
:1007cc000000000000000000004400440028002845
:1007dc00001000100010006000000000007c0008f9
:1007ec00001000200040007c0000000000180010e9
:1007fc000010001000200020001000100010001845
:10080c00001000100010001000100010001000105c
:10081c00001000100030001000100010000800083c
:10082c0000100010001000300000000000000074e8
:0c083c00004c0000000000000000000064
:020000040000fa
:100848007c0000201c000000000000009800002030
:100858000c00000000000000500000202c000000e8
:1008680000000000a40000200600000000000000b6
:10087800b400002000040000010000000000000097
:100888000000000000000000000000000000000060
:100898000000000000000000000000000000000050
:1008a8000000000000000000000000000000000040
:1008b80000000000000000000000008080800000b0
:1008c800000000000000000000000000008080c060
:1008d800c000000000000000000000000000000050
:1008e8000000000000000000000000000000000000
:1008f80000000000000000000000000000000000f0
:1009080000000000000000000000000000000000df
:1009180080c0e0f0f8fcf8e00000000000000000f3
:1009280000000000000000000080808080800080bf
:100938008000000000808080808000ff0000008030
:10094800c0e0f0f9ffffffffff3f1f0f87c7f7ff6a
:10095800ff1f1f3dfcf8f8f8f87c7dffffffffff45
:10096800ffffff7f3f0f070030300000000000004e
:10097800000000000000000000000000000000006f
:10098800fefefc0000000000000000000000000067
:10099800000000000000000000e0c00000000000af
:1009a80000000000000030300000000000000000df
:1009b80000000000000000000000000000c0feff72
:1009c800ffffffffffffffff7f7f3f1f0f071f7f17
:1009d800fffff8f8fffffffffffef8e0000000014f
:1009e8000000000000000000fefe000000fcfefc0d
:1009f8000c06060efcf80000f0f81c0e0606060ca5
:100a0800ffffff0000fefe00000000fcfefc0018d7
:100a18003c7e66e6ce84000006ffff0606fcfefc70
:100a28000c0606060000fefe0000c0f8fc4e464616
:100a3800464e7c7840183c76e6cecc80000000001c
:100a4800000000000000000000000000000000009e
:100a580001070f1f1f3f3f3f3f1f0f03000000000c
:100a680000000000000000000f0f0000000f0f0f33
:100a7800000000000f0f000003070e0c18180c06ea
:100a88000f0f0f0000010f0e0c180c0f07010004c8
:100a98000e0c180c0f070000000f0f00000f0f0faf
:100aa8000000000000000f0f00000007070c0c18e2
:100ab8001c0c060600040e0c180c0f0700000000a2
:100ac800000000000000000000000000000000001e
:100ad800000000000000000000000000000000000e
:100ae80000000000000000000000000000000000fe
:100af80000000000000000000000000000000000ee
:100b080000000000000000000000000000000000dd
:100b1800000000000000ffff0000000000000000cf
:100b280000000000000000000000000000000000bd
:100b380000000000000000000000000000000000ad
:100b4800000000000000000000000000000000009d
:100b5800000000000000000000000000000000008d
:100b6800000000000000000000000000000000007d
:100b7800000000000000000000000000000000006d
:100b8800000000000000000000000000000000005d
:100b9800000000000000000000000000000000004d
:100ba800000000000000000000000000000000003d
:100bb800000000000000000000000000000000002d
:100bc800000000000000000000000000000000001d
:100bd800000000000000000000000000000000000d
:100be80000000000000000000000000000000000fd
:100bf80000000000000000000000000000000000ed
:100c080000000000000000000000000000000000dc
:100c180000000000000000000000000000000000cc
:100c280000000000000000000000000000000000bc
:100c380000000000000000000000000000000000ac
:100c4800000000000000000000000000000000009c
:100c5800000000000000000000000000000000008c
:100c6800000000000000000000000000000000007c
:100c7800000000000000000000000000b404002094
:100c88000800000001000000070a0000dc00000066
:100c9800ac0000200400000000000000000000205c
:100ca8005000000000000000b00000200400000018
:100cb800000000000000000000000000444444441c
:020000040000fa
:100cc80010b5694b9b7d002b17d0674b5b8b9b073f
:100cd80014d5664b2022ff2199540132fd399954cd
:100ce800624a2023d35c5bb2013300d18be05f4ab8
:100cf8002023d35c062b00d19de010bd5a4b5b8ba3
:100d0800db0707d5594b2022ff2199540132fd39c1
:100d18009954e5e7544b5b8b5b0707d5534b20226f
:100d2800ff2199540132fe399954d9e74f4a2023bb
:100d3800d35c5bb2032b44d0042b0fd0022bcfd152
:100d48001369002b04d09088002100f039fcc7e714
:100d5800464b9888012100f033fcc1e7434a936968
:100d6800126993420cd0414a9168cc5c3e482821d4
:100d78004454013393610200d369002bfcd1afe7df
:100d88003a4b5b69002b0ed0384b9b885b000122e5
:100d98001343354a5362d369002bfcd1334a2033bd
:100da8000321d1549ce7304a5168c0239b020b436e
:100db8005360d369002bfcd12c4a20330621d1542f
:100dc8008ee72a4a5369013bd2699a420dd0264ad6
:100dd800d369002bfcd1254ad36923482821415cdb
:100de800d068c1540133d3617ae71f4a5168e023c0
:100df800db020b435360d369002bfcd11b4a203321
:100e08000621d154e3e720230021d154164a516822
:100e1800c0239b020b435360d369002bfcd1124bb8
:100e280083221a76114b5b6a002b00d165e70f4ac3
:100e3800906a984761e71300002220215a54013133
:100e48005a54094b83321a761900533a4b8b134084
:100e5800102bfbd1054b5b6a002b00d14de7034af1
:100e6800906a984749e7c0460018004250000020a1
:020000040000fa
:100e7800f0b5de4657464e464546e0b585b00eac61
:100e880024780194041c7f2800d97f24a4b2101c64
:100e98007f2a00d97f2082b290460d1c3f2900d9b5
:100ea8003f25adb21a1c3f2b00d93f2293b2994679
:100eb800a04535d943461b1b1bb29a46a9453ed8c7
:100ec8004b46ef1a3fb2a04544d901230293023b97
:100ed8000393574543da5346de0f5644761053467c
:100ee800002b42d05b429b46002f59d14b46a94567
:100ef80000d92b1c9db2a04502d223004446984637
:100f080024b24646444566dcedb2019fe0b23a00a1
:100f1800290000f029fb013424b2b442f6dd5ae07e
:100f28004346e31a1bb29a46a945c9d94b465f1beb
:100f38003fb201235b42029302330393c9e74b4656
:100f48005f1b3fb2012302930393a045c1d8023b24
:100f58000293bee701235b4202930393b9e7fe0fb6
:100f6800f6197610764236b2b9e7a94502d22b00b7
:100f78004d4699464346a04500d9231c9cb22db244
:100f88004e464d4527dce4b2019fe9b23a00200005
:100f980000f0eafa01352db2b542f6dd1be01e007d
:100fa800e9b2e0b2019a00f0dffa444511d033000b
:100fb8005e4505ddf31b1bb2029a94466444a4b255
:100fc800be42ecda53441bb2039a94466544adb270
:100fd800e5e74d45ebd105b03cbc90469946a246a5
:040fe800ab46f0bd67
:020000040000fa
:100fec0010b50a2000f080fbae2200213c2000f05e
:100ffc008afc202200213c2000f085fc10220021dc
:10100c003c2000f080fcb02200213c2000f07bfc56
:10101c00c82200213c2000f076fc002200213c205c
:10102c0000f071fc102200213c2000f06cfc4022ee
:10103c0000213c2000f067fc812200213c2000f0c4
:10104c0062fcff2200213c2000f05dfca12200216b
:10105c003c2000f058fca62200213c2000f053fc60
:10106c00a82200213c2000f04efc3f2200213c2015
:10107c0000f049fca42200213c2000f044fcd322c7
:10108c0000213c2000f03ffc002200213c2000f01d
:10109c003afcd52200213c2000f035fcf022002146
:1010ac003c2000f030fcd92200213c2000f02bfc2d
:1010bc00222200213c2000f026fcda2200213c20d8
:1010cc0000f021fc122200213c2000f01cfcdb2251
:1010dc0000213c2000f017fc202200213c2000f0d5
:1010ec0012fc8d2200213c2000f00dfc142200216a
:1010fc003c2000f008fcaf2200213c2000f003fc57
:10110c002e2200213c2000f0fefb002000f00cfc05
:10111c0000f00afb034b00221a805a8001325a71ec
:08112c0010bdc046a400002024
:020000040000fa
:10113400f0b5d6464f464646c0b582b081460e004d
:1011440011000092294b1b8832789b187f2b49dcb5
:101154007278264b5b889b183f2b45dc002a35d0e0
:1011640000250b0059424b4120498a4601930f0048
:101174001fe0534659884919c9b218880019c0b2ea
:10118400019a00f0f3f901343378a3420dd94346b0
:10119400a3401b04edd579884919c9b238880019d0
:1011a400c0b2009a00f0e2f9ede701357278aa4284
:1011b4000cd94b46203b53435b195b0072689b5a26
:1011c40098463378002bf0d00024e0e7074a3378c0
:1011d40011885b181380484602b01cbc904699469f
:1011e400a246f0bd0020f7e70020f5e7a4000020a8
:020000040000fa
:1011f400f0b5de4657464e464546e0b585b08346d3
:10120400009103921f000eab00229b5e99460fab28
:101214001988fa1dd017072303409b18db1002938b
:1012240000239a4600254b46002b33ddcbb20193b5
:10123400c84624e0c31733401b18db104a46d55c6c
:101244006bb2002b09db013420b2b8420dd084b25a
:101254002642efd06d00edb2f2e76b4619785844a0
:10126400c0b2019a00f082f9ede7534601331bb294
:101274009a46009b01331bb20093d0450add002f30
:10128400f3dd002007265346029a5343039a9146fe
:101294009944dce705b03cbc90469946a246ab466f
:0212a400f0bd9b
:020000040000fa
:0212a60070478f
:020000040000fa
:1012a80070b582b000f07efb0e212d2000f088fb87
:1012b800234d244c01222900200000f001fb0126c7
:1012c80000960f2380220a21002000f07bf82021bd
:1012d8000a2000f075fb200008300122290000f0e8
:1012e800effa2c210a2000f06bfb200010300122bd
:1012f800290000f0e5fa36210a2000f061fb200001
:101308001c300122290000f0dbfa40210a2000f0fd
:1013180057fb200028300122290000f0d1fa01965d
:101328000a230093084a1e210020fff75fff00f000
:10133800fdf9fa20c00000f0d9f902b070bdc0462e
:0c134800b40400201418000088190000f4
:020000040000fa
:10135400174b5a6852031b68db0c13439b029b0a0e
:10136400144a936300235375110004228b691a42b3
:10137400fcd110491022cb681a42fcd00e4b00223b
:101384009a611a610d4b0e4a1a62190004224b68c5
:101394001a42fcd1094ae4234021d1501000a4315f
:1013a400402243581a42fcd0064b4022da6170476f
:1013b400206080000010004000140040001c004029
:0813c4000601010000080040d1
:020000040000fa
:1013cc00f0b585b01e000aab1d7843b2002b30dba4
:1013dc003f292ed883187f2b03dd80225242121a0c
:1013ec00d2b28b193f2b02dd4026761af6b287b2a9
:1013fc008cb2bb181800009523000390020021004a
:10140c003800fff733fda61900953300039a31001d
:10141c003800fff72bfd009533003a00210038000f
:10142c00fff724fd00953300039802002100fff71d
:06143c001dfd05b0f0bd2e
:020000040000fa
:021442007047f1
:020000040000fa
:101444000021f0b5174b184a934208d30027174ad6
:1014540013685168002b05d1002903d1f0bd197020
:101464000133f1e7100095680c305c18002d16d09c
:101474000b25ed1a5219a3420ad10b000322134083
:101484005a1e934189085918890040180200dfe761
:101494005d1cae5c1e702b00ede71f700133a34290
:1014a400fbd1f3e700000020000000204808000002
:020000040000fa
:1014b400144b01221a601a00d369002bfcd1114b82
:1014c400802252005a601a00d369002bfcd10d4bc4
:1014d4003422da600c4a1a601a00d369002bfcd15a
:1014e400084b10225a831a00d369002bfcd1074bf6
:1014f400002221215a5401395a54024b83329a75dd
:101504007047c0460018004216001000500000202a
:020000040000fa
:1015140000230e4a10b513600d4a13600d4a136080
:101524000d4a13600d4a13600d4a5362136101336f
:10153400936000f040fa00f03efa0a4c0a4b9c42d9
:1015440000d310bd08cc9847f8e7c046b00000208f
:101554000c000020080000200000002004000020ef
:0c15640010000020c8000000cc000000b7
:020000040000fa
:1015700010b543b2002b15db3f2913d8104b1b7954
:10158000002b02d053425a41d2b2012a0bd0cb08d1
:10159000db0118180b4c0723194001228a40235cf9
:1015a0009343235410bdcb08db011818054a0723c9
:1015b0001940063b8b40115c0b431354f2e7c046c5
:0815c000a4000020b40000208b
:020000040000fa
:1015c80010b5114b00229a61da61104b83321a76fa
:1015d8005a680f4c22405a601a00d369002bfcd17c
:1015e80000290cd0084a20330324d454400008436f
:1015f800064b58621a00d369002bfcd110bd024a71
:1016080020230424d454f1e750000020001800429d
:04161800fffffbffd6
:020000040000fa
:10161c0010b5064c2378002b07d1054b002b02d0bc
:10162c00044800e000bf0123237010bd7c000020a3
:10163c000000000000000000044b10b5002b03d08c
:10164c000349044800e000bf10bdc0460000000084
:08165c008000002000000000e6
:020000040000fa
:101664000f4b01221a8019000b691a42fcd10c4b52
:101674000c4a1a801900802212020b691342fcd111
:10168400074b802292001a621900e13aff3a0b6973
:101694001a42fcd1024b802252005a817047c04644
:0816a400002400408081ffffdb
:020000040000fa
:1016ac0010b50a4b98470a4b984700f08df9094b37
:1016bc00ff229343084a9360084b9847084b98477e
:1016cc00084b984700f00ef9fee7c04643140000a3
:1016dc00431400000000000000ed00e015150000b0
:0816ec00431400004314000048
:020000040000fa
:1016f40070b50d4b5e681b68db0714d50b4b584364
:10170400094b9b6800280ed00021074c013605e0e8
:10171400b51aeb18c9181300884204d9a2689a4272
:10172400f6d89b1af6e770bd10e000e080bb00001d
:020000040000fa
:1017340070b50e4db024220000213c2000f0e7f8e3
:10174400002200213c2000f0e2f8102200213c207d
:1017540000f0ddf880232a0040213c2000f070f8de
:101764000134e4b28035b82ce5d170bdb40000205a
:020000040000fa
:1017740010b5bff35f8f62b60a4bc02080001a58c1
:10178400094c2240c02109040a431a5004221a6059
:101794000c301a582240114319508022d2011a6089
:0c17a40010bdc04600e100e0ffff00ffa8
:020000040000fa
:1017b00010b50b4c2023e45c0023002c01d0180052
:1017c00010bd074b9880dc605c6199601a619c7069
:1017d0001c7021229c540021fff7f6fe0123eee746
:0417e0005000002095
:020000040000fa
:1017e40010b50a4b06225a6000f0c0f8fff7b0fdae
:1017f40000f0e2f8fff755fd00f0aaf8fff758fef5
:10180400fff72efffff7b4ff10bdc04600400041b4
:020000040000fa
:101814004d656e7500000000536f756e6400000026
:10182400457175616c697a65720000005375627761
:101834006f6f666572000000566f6c756d65000011
:020000040000fa
:1018440030b5c1b06c462170002b09d000210c00ca
:101854006c44555c65700131c9b28cb29c42f6d3bc
:0e1864005a1c80b26946fff7a1ff41b030bdab
:020000040000fa
:02187200fee78f
:020000040000fa
:1018740010b5074b988980b2064a50600649998191
:101884009b891368002b01d09168984710bdc0460e
:0c1894000024004098000020ff81ffffae
:020000040000fa
:1018a000074a2023d35c0120002b07d1054b588b1e
:1018b000302318401038431e9841c0b27047c046cc
:0818c000500000200018004256
:020000040000fa
:1018c80070b504000e001500007800280bd02a001f
:1018d8003100fff72bfc03002078834203d1013449
:0818e80020780028f3d170bd47
:020000040000fa
:1018f00010b50020fff776fffff778fbfff776fbc8
:10190000fff718fffa20c000fff7f4fefff7ccfc4a
:02191000fee7f0
:020000040000fa
:1019120000b583b001ab19705a7080b2022219006f
:10192200fff745fffff7bbff0028fbd103b000bd67
:020000040000fa
:02193200fee7ce
:020000040000fa
:1019340010b5414241414942fe239943ff3180227f
:10194400d200024800f028f810bdc046b4000020c0
:020000040000fa
:10195400044b00221a609a60034a5a6004221a60f7
:0c1964007047c04610e000e07fbb0000b0
:020000040000fa
:101970008223db050122d0215a5401315a54b73257
:06198000af3999547047d5
:020000040000fa
:02198600fee77a
:020000040000fa
:10198800300038001c000e00030003000e001c008d
:0419980038003000e3
:020000040000fa
:10199c0003001218934200d1704719700133f9e714
:020000040000fa
:0e19ac0010b50020fff7c0fffff7befe10bd14
:020000040000fa
:0219ba00704774
:020000040000fa
:0c19bc00014b84225a607047004000413b
:020000040000fa
:0c19c800014b188059807047a4000020db
:020000040000fa
:0819d40010b5fff735fd10bd51
:020000040000fa
:0200000400807a
:04400000770800003d
:020000040000fa
:0200000400807a
:044004000000ffffba
:00000001FF
